:107000004FC000009EC000009CC000009AC000005D
:1070100098C0000096C0000094C0000092C000001C
:1070200090C000008EC000008CC000008AC000002C
:1070300088C0000086C0000084C0000082C000003C
:1070400080C000007EC000007CC000007AC000004C
:1070500078C0000076C0000074C0000072C000005C
:1070600070C000006EC00000000500044F70636F28
:1070700064653F0000050003466C61736820467537
:107080006C6C00000500004572726F720000050014
:1070900000496E76616C696420696D616765000006
:1070A00011241FBECFEFD8E0DEBFCDBF14E0A0E0BB
:1070B000B1E0EEECF9E702C005900D92A831B107FE
:1070C000D9F714E0A8E1B4E001C01D92A132B107E4
:1070D000E1F701D07AC410D484EC99E020E931E0E2
:1070E000F9013197F1F70197D9F78EE284B98CE372
:1070F00085B983E08093810081E08DBD80E091E0DF
:107100000AD48FE291E007D483E391E004D4ACD0B9
:1071100083E491E000D483E591E0FDD3D3D082E60F
:1071200091E0F9D377D3882311F00CD0FBCF83E71C
:1071300091E0F1D3E0911A04F0911B04099580E0ED
:1071400090E05ECF209184003091850080911F04F3
:10715000909120042817390770F4809118049091B9
:10716000190401969093190480931804299B02C076
:10717000299801C0299A3093200420931F04089570
:10718000E0E0F0E0859194918F5F9F4F11F420E053
:1071900008C020E08091180490911904449708F0E9
:1071A00021E0822F08951092190410921804089576
:1071B0009C0180E58CBD2A9880EF8EBD0DB407FE42
:1071C000FDCF832F99278EBD0DB407FEFDCF2EBDB9
:1071D0000DB407FEFDCF6EBD0DB407FEFDCF2A9A9C
:1071E0001CBC08959C0180E58CBD2A988FE08EBD63
:1071F0000DB407FEFDCF832F99278EBD0DB407FE7A
:10720000FDCF2EBD0DB407FEFDCF1EBC0DB407FE95
:10721000FDCF2A9A8EB51CBC0895EF92FF920F9372
:107220001F938C01DFDFE82EC8010196DBDFFF240E
:10723000FE2CEE2490E08E299F291F910F91FF9044
:10724000EF900895EF92FF920F931F938C017B01B3
:10725000672F7727ADDFC80101966E2DA9DF1F913B
:107260000F91FF90EF900895CF93DF9380E090E02F
:1072700096D38535A9F481E090E091D38A3A81F4E0
:1072800084E891E048D3C3E0D0E0CE0188D3FE018A
:10729000ED54FE4F80832196C531D105B1F703C06F
:1072A0008CE991E038D3C0E0D0E0FE01EB54FE4F12
:1072B000CE0160817DDF2196CC31D105B1F7DF9120
:1072C000CF91089584E097E065E470E0BBDF80E053
:1072D00097E062E06DDF81E097E061E069DF83E0E5
:1072E00097E080DF823221F081E097E060E160DFAB
:1072F00083E097E077DF823229F70895DF92EF92FB
:10730000FF920F931F93DF93CF93CDB7DEB7C45691
:10731000D040DEBFCDBF8C0184E297E07EDF7C01F0
:1073200003301105A9F10430110538F401301105BD
:1073300029F10230110539F435C004301105A9F1E5
:107340000530110589F0CE01019663E870E74AE047
:1073500050E01CD35AE0D52EC7018050984A7E01D8
:107360000894E11CF11C3BC0CE0101966DE870E76A
:1073700042E150E00BD342E1D42EEECFCE01019694
:1073800068E670E74CE050E001D33CE0D32EE4CF58
:10739000CE01019664E770E74FE050E0F7D22FE0AE
:1073A000D22EDACF81ED91E0B6D288EE91E0B3D261
:1073B00080911C0490911D04CDD282EF91E0ABD25C
:1073C000198284E08A8320911C0430911D04832F4C
:1073D00099278B832C8384E0D82EBECFC8018C01E3
:1073E0000F5F1F4FF7016081E3DEF0E600301F07FB
:1073F00011F400E018E50894E11CF11CDA9471F72F
:107400000050184584E297E0B8011CDF81E097E066
:1074100060E2CEDE81E097E0E5DE8823D9F785EFF4
:1074200091E079D2CC59DF4FDEBFCDBFCF91DF9154
:107430001F910F91FF90EF90DF9008956F927F92D0
:107440008F929F92AF92BF92CF92DF92EF92FF9274
:107450000F931F93DF93CF93CDB7DEB7C051D240C8
:10746000DEBFCDBF8C0185E092E055D282E492E090
:1074700052D28BE592E04FD2C8016CD28CE692E0FA
:107480004AD20050184019F485E792E044D288E2CD
:1074900097E0C3DE4C0181E0881688E0980610F47E
:1074A000640111C083E892E036D284EA92E033D2DC
:1074B000C40150D282EF91E02ED27FEFC72E77E049
:1074C000D72EC820D92084EA92E025D2C601805068
:1074D000984840D266E0E62E68E7F62EEC0CFD1CDC
:1074E000C70180DE082FC601895F97487BDEA82E82
:1074F000BB24E8E0F0E0AE0EBF1E10E0102F002726
:10750000A00EB11E82EF91E006D282EB92E003D290
:10751000C70120D282EF91E0FED183EC92E0FBD153
:1075200044EF642E4FEF742E6A0C7B1CC30112D201
:1075300082EF91E0F0D175010894E11CF11C8E01FD
:107540000F5F1F4F15C0C601805098484BDEF801F1
:1075500080830894C11CD11CF0E0CF16F8E0DF0650
:1075600011F4CC24DD240F5F1F4F0894E108F108CB
:10757000E114F10441F785ED92E0CDD18501080DCC
:10758000191DC801E7D182EF91E0C5D188E297E0EB
:10759000B80158DE81E097E060E40ADE81E097E020
:1075A00021DE8823D9F787EE92E0B5D186E297E015
:1075B00034DED0D182EF91E0AED17E010894E11C9F
:1075C000F11C0CE017E0C801F70161917F01F0DDCB
:1075D0000F5F1F4FF7E002311F07A9F7898590E081
:1075E000182F00278A85080F111D8B8590E0D82E53
:1075F000CC248C85C80ED11C84EF92E08CD1C601BE
:10760000A9D182EF91E087D185E093E084D1C801D0
:10761000A1D182EF91E07FD10330110509F45AC066
:107620000430110520F40230110549F40FC0043074
:10763000110509F4D5C00530110509F4D4C0C801FD
:1076400089D18DE093E067D181E0D1C081E293E000
:1076500062D181E097E060E4ABDD81E097E060E13A
:10766000A7DD80E097E062E0A3DD81E097E061E0E4
:107670009FDD6E8170E0609570958D8190E0982F10
:107680008827682B792B84E097E0DCDD83E097E0A6
:10769000A9DD823221F081E097E060E189DD83E0BD
:1076A00097E0A0DD8232E9F681E393E034D18E8168
:1076B00025E5822790E02D8130E0322F2227822B92
:1076C000932B48D182EF91E026D110921D041092A5
:1076D0001C047FC0D0921D04C0921C047601089443
:1076E000E108F108FE2CEE24FF0C82E493E013D1B4
:1076F00080911C0490911D042DD182EF91E00BD15B
:10770000C5018E0D9F1D8150904728F08CE593E0B8
:1077100002D183E06CC08DE693E0FDD0C7011AD1A1
:1077200082EF91E0F8D0850102C00F5F1F4FC801C2
:107730008F779070892BC9F7E114F10459F0DE01BD
:107740001D9640E050E0CC24C394F3E0DF2E75E0BA
:1077500061E137C0CE010D96BFD0882381F788E85C
:1077600093E0D9D085E043C011968C91119790E0B9
:10777000982F88272C9130E0822B932BF7010C0156
:10778000C0925700E89511244E5F5F4FCA018F7772
:107790009070892B89F4EE57F040D0925700E8950D
:1077A00007B600FCFDCF70935700E89507B600FCC4
:1077B000FDCF60935700E895129682E090E0E80EC6
:1077C000F91E4017510780F290E0691692E07906A1
:1077D00010F082E00CC089E993E09DD084E007C0FE
:1077E0008DEA93E002C083EB93E095D080E0C05F28
:1077F000DD4FDEBFCDBFCF91DF911F910F91FF9085
:10780000EF90DF90CF90BF90AF909F908F907F9040
:107810006F9008951F9386E297E0FFDC009721F1B7
:107820000DDE182F90E06ADD81E080931E0482E077
:1078300090E06FEFBCD0B7DC1430B1F481E097E09A
:1078400060E1B6DC82E090E06BEBB1D08BEB93E0D3
:1078500062D082E090E0A3D090E07CD082EF91E013
:107860005AD084EC93E032C08BDC8823E9F080911D
:107870001E048823C9F081E097E060E199DC84ED83
:1078800093E049D08CEE93E046D010921E0407B6E8
:1078900000FCFDCFF999FECFE0E0F0E083E08093BB
:1078A0005700E8950FDD15C06BDC882391F08091BF
:1078B0001E04882371F482E090E071D08B3B49F480
:1078C00081E097E060E174DC8DE094E024D080E01A
:1078D00001C081E01F910895FC0190E080818C300F
:1078E00049F48181843931F49C5F34969433B1F743
:1078F00081E0089580E0089582E28093C00088E0EE
:107900008093C10080E190E09093C5008093C40013
:1079100082E98AB90895FC0106C08093C60080916F
:10792000C00085FFFCCF81918823B9F7089580932B
:10793000C6008091C00085FFFCCF08958F708A300B
:1079400008F0895F805D8093C6008091C00085FF4C
:10795000FCCF08950F931F938C0180E3E8DF88E745
:10796000E6DFC801892F992782958F70E7DF812F85
:107970009927E4DFC80124E0969587952A95E1F7D9
:10798000DDDF802FDBDF1F910F910895FB01DC010C
:1079900002C005900D9241505040D8F70895F999D2
:1079A000FECF92BD81BDF89A992780B50895262F04
:1079B000F999FECF1FBA92BD81BD20BD0FB6F894D4
:0E79C000FA9AF99A0FBE01960895F894FFCF37
:1079CE005446545020426F6F746C6F616465722020
:1079DE00666F722041726475696E6F2045746865BA
:1079EE00726E65742C2056657273696F6E2000304E
:1079FE002E32000D0A4E657420696E69742E2E2E7D
:107A0E000D0A004E657420696E697420646F6E6590
:107A1E000D0A005446545020496E69742E2E2E0DB8
:107A2E000A005446545020496E697420646F6E6586
:107A3E000D0A005374617274207573657220617043
:107A4E00700D0A005573696E6720454550524F4DB3
:107A5E002073657474696E67730D0A005573696ED1
:107A6E00672044656661756C742053657474696E25
:107A7E0067730D0A0080C0A801FEFFFFFF001234DD
:107A8E0045789ABCC0A801010000000007D08055BF
:107A9E005553656E642041434B20284E6F7420462B
:107AAE00696E616C290D0A0053656E642041434B6B
:107ABE0020000D0A00526573706F6E73652073653A
:107ACE006E740D0A002D2D2D2D2D2D2D2D2D2D2DC0
:107ADE002D2D2D2D2D2D2D2D2D2D2D2D2D2D2D2DC8
:107AEE002D2D2D2D2D2D2D2D2D2D2D2D2D2D2D2DB8
:107AFE002D2D2D2D2D2D2D2D2D2D2D2D2D2D2D0DC8
:107B0E000A005374617274696E672050726F6365F8
:107B1E0073735061636B65740D0A00446174612068
:107B2E00696E206275666665723A2000206279740D
:107B3E0065730D0A004F564552464C4F5721212171
:107B4E000D0A004170706C79696E67206D6F6475F7
:107B5E006C6F20746F2072656164506F696E74650E
:107B6E00720D0A005265616420506F696E74657201
:107B7E003A004164647265737320666F72206C659F
:107B8E006E3A0054465450205061636B6574205316
:107B9E00697A653A004E6577205265616420506FB0
:107BAE00696E7465723A006279746573746F72658A
:107BBE0061643A005468697320697320626C6F6364
:107BCE006B206EB0004F70636F64653D006973206B
:107BDE00696E76616C6964206F70636F64650D0AFF
:107BEE0000577269746520726571756573740D0A3C
:107BFE00004368616E67656420746F20706F7274E5
:107C0E00200057726974696E672044617461206642
:107C1E006F7220626C6F636B206EB000466C617386
:107C2E00682069732066756C6C210D0A00577269A5
:107C3E0074696E6720646174612066726F6D206175
:107C4E006464726573732000496E76616C6964209A
:107C5E00496D616765210D0A00466C617368206984
:107C6E007320636F6D706C6574650D0A0041636BF4
:107C7E000D0A004572726F720D0A00696D675F73AF
:107C8E00746174005446545020436F6D706C65746B
:107C9E00650D0A00446F776E6C6F616420696E74B7
:107CAE006572727570746564210D0A0052652D69D6
:107CBE006E697469616C6973696E672054465450BD
:107CCE00207365727665722E2E2E0D0A0054696D24
:087CDE00656F7574210D0A00A9
:040000030000700089
:00000001FF
